{"abi":[{"type":"constructor","inputs":[{"name":"initialOwner","type":"address","internalType":"address"}],"stateMutability":"nonpayable"},{"type":"function","name":"authorizeIssuer","inputs":[{"name":"issuer","type":"address","internalType":"address"}],"outputs":[],"stateMutability":"nonpayable"},{"type":"function","name":"authorizedIssuers","inputs":[{"name":"","type":"address","internalType":"address"}],"outputs":[{"name":"","type":"bool","internalType":"bool"}],"stateMutability":"view"},{"type":"function","name":"getCredential","inputs":[{"name":"hash","type":"bytes32","internalType":"bytes32"}],"outputs":[{"name":"","type":"tuple","internalType":"struct CredyxRegistry.Credential","components":[{"name":"hash","type":"bytes32","internalType":"bytes32"},{"name":"owner","type":"address","internalType":"address"},{"name":"issuer","type":"address","internalType":"address"},{"name":"issuedAt","type":"uint64","internalType":"uint64"},{"name":"revoked","type":"bool","internalType":"bool"}]}],"stateMutability":"view"},{"type":"function","name":"owner","inputs":[],"outputs":[{"name":"","type":"address","internalType":"address"}],"stateMutability":"view"},{"type":"function","name":"registerCredential","inputs":[{"name":"hash","type":"bytes32","internalType":"bytes32"},{"name":"owner","type":"address","internalType":"address"}],"outputs":[],"stateMutability":"nonpayable"},{"type":"function","name":"renounceOwnership","inputs":[],"outputs":[],"stateMutability":"nonpayable"},{"type":"function","name":"revokeCredential","inputs":[{"name":"hash","type":"bytes32","internalType":"bytes32"}],"outputs":[],"stateMutability":"nonpayable"},{"type":"function","name":"revokeIssuer","inputs":[{"name":"issuer","type":"address","internalType":"address"}],"outputs":[],"stateMutability":"nonpayable"},{"type":"function","name":"transferOwnership","inputs":[{"name":"newOwner","type":"address","internalType":"address"}],"outputs":[],"stateMutability":"nonpayable"},{"type":"function","name":"verifyCredential","inputs":[{"name":"hash","type":"bytes32","internalType":"bytes32"}],"outputs":[{"name":"","type":"bool","internalType":"bool"}],"stateMutability":"view"},{"type":"event","name":"CredentialRegistered","inputs":[{"name":"hash","type":"bytes32","indexed":true,"internalType":"bytes32"},{"name":"issuer","type":"address","indexed":true,"internalType":"address"},{"name":"owner","type":"address","indexed":true,"internalType":"address"}],"anonymous":false},{"type":"event","name":"CredentialRevoked","inputs":[{"name":"hash","type":"bytes32","indexed":true,"internalType":"bytes32"},{"name":"issuer","type":"address","indexed":true,"internalType":"address"}],"anonymous":false},{"type":"event","name":"IssuerAuthorized","inputs":[{"name":"issuer","type":"address","indexed":true,"internalType":"address"}],"anonymous":false},{"type":"event","name":"IssuerRevoked","inputs":[{"name":"issuer","type":"address","indexed":true,"internalType":"address"}],"anonymous":false},{"type":"event","name":"OwnershipTransferred","inputs":[{"name":"previousOwner","type":"address","indexed":true,"internalType":"address"},{"name":"newOwner","type":"address","indexed":true,"internalType":"address"}],"anonymous":false},{"type":"error","name":"CredentialAlreadyExists","inputs":[]},{"type":"error","name":"CredentialAlreadyRevoked","inputs":[]},{"type":"error","name":"CredentialNotFound","inputs":[]},{"type":"error","name":"IssuerAlreadyAuthorized","inputs":[]},{"type":"error","name":"IssuerNotAuthorized","inputs":[]},{"type":"error","name":"OwnableInvalidOwner","inputs":[{"name":"owner","type":"address","internalType":"address"}]},{"type":"error","name":"OwnableUnauthorizedAccount","inputs":[{"name":"account","type":"address","internalType":"address"}]},{"type":"error","name":"UnauthorizedIssuer","inputs":[]}],"bytecode":{"object":"0x608060405234801561000f575f5ffd5b5060405161094038038061094083398101604081905261002e91610103565b806001600160a01b03811661005c57604051631e4fbdf760e01b81525f600482015260240160405180910390fd5b610065816100b4565b506001600160a01b0381165f81815260026020526040808220805460ff19166001179055517f8b4006ca14f23d4e7aa8d120d1ab7c3761d650eefac1a5d6732dbea94b54ea249190a250610130565b5f80546001600160a01b038381166001600160a01b0319831681178455604051919092169283917f8be0079c531659141344cd1fd0a4f28419497f9722a3daafe3b4186f6b6457e09190a35050565b5f60208284031215610113575f5ffd5b81516001600160a01b0381168114610129575f5ffd5b9392505050565b6108038061013d5f395ff3fe608060405234801561000f575f5ffd5b506004361061009a575f3560e01c80638da5cb5b116100635780638da5cb5b14610109578063ca6eec7814610123578063d1be488314610136578063f2fde38b146101a0578063f731fa0f146101b3575f5ffd5b80626296791461009e578063436693d5146100b35780634dbf87cc146100c6578063515deca4146100ee578063715018a614610101575b5f5ffd5b6100b16100ac36600461076c565b6101d5565b005b6100b16100c136600461076c565b61025d565b6100d96100d436600461078c565b6102e9565b60405190151581526020015b60405180910390f35b6100b16100fc3660046107a3565b610369565b6100b16104b7565b5f546040516001600160a01b0390911681526020016100e5565b6100b161013136600461078c565b6104ca565b61014961014436600461078c565b6105dd565b60408051825181526020808401516001600160a01b039081169183019190915283830151169181019190915260608083015167ffffffffffffffff169082015260809182015115159181019190915260a0016100e5565b6100b16101ae36600461076c565b610694565b6100d96101c136600461076c565b60026020525f908152604090205460ff1681565b6101dd6106d6565b6001600160a01b0381165f9081526002602052604090205460ff1661021557604051631d342f4760e01b815260040160405180910390fd5b6001600160a01b0381165f81815260026020526040808220805460ff19169055517f95a4c2ae425bb769549aa1a911911ff57c17ae811ae8c8962d0b9746fcb153979190a250565b6102656106d6565b6001600160a01b0381165f9081526002602052604090205460ff161561029e576040516358ad870160e01b815260040160405180910390fd5b6001600160a01b0381165f81815260026020526040808220805460ff19166001179055517f8b4006ca14f23d4e7aa8d120d1ab7c3761d650eefac1a5d6732dbea94b54ea249190a250565b5f818152600160208181526040808420815160a08101835281548152938101546001600160a01b03908116938501939093526002015491821690830152600160a01b810467ffffffffffffffff1660608301819052600160e01b90910460ff1615156080830152820361035e57505f92915050565b608001511592915050565b335f9081526002602052604090205460ff1661039857604051635a0dd16b60e11b815260040160405180910390fd5b5f82815260016020526040902060020154600160a01b900467ffffffffffffffff16156103d85760405163724efe9160e01b815260040160405180910390fd5b6040805160a0810182528381526001600160a01b0380841660208084018281523385870181815267ffffffffffffffff428116606089019081525f60808a018181528d82526001978890528b82209a518b559551968a018054978a166001600160a01b031990981697909717909655915160029098018054925194511515600160e01b0260ff60e01b1995909216600160a01b026001600160e01b03199093169890971697909717179190911694909417909255925185917ff3bee472e6906674cad701f27c5d83159d966b3ad285e3424a3c1a62f3504c3a91a45050565b6104bf6106d6565b6104c85f610702565b565b335f9081526002602052604090205460ff166104f957604051635a0dd16b60e11b815260040160405180910390fd5b5f81815260016020526040812060028101549091600160a01b90910467ffffffffffffffff16900361053e57604051632dc6675360e21b815260040160405180910390fd5b6002810154600160e01b900460ff161561056b57604051633e3c14b160e11b815260040160405180910390fd5b60028101546001600160a01b0316331461059857604051635a0dd16b60e11b815260040160405180910390fd5b60028101805460ff60e01b1916600160e01b179055604051339083907fd3196f598a360c115a1de20d5a58021203793f1bf1a08efe55ee14545779606d905f90a35050565b6040805160a0810182525f808252602082018190529181018290526060810182905260808101919091525f828152600160208181526040808420815160a08101835281548152938101546001600160a01b03908116938501939093526002015491821690830152600160a01b810467ffffffffffffffff1660608301819052600160e01b90910460ff161515608083015290910361068e57604051632dc6675360e21b815260040160405180910390fd5b92915050565b61069c6106d6565b6001600160a01b0381166106ca57604051631e4fbdf760e01b81525f60048201526024015b60405180910390fd5b6106d381610702565b50565b5f546001600160a01b031633146104c85760405163118cdaa760e01b81523360048201526024016106c1565b5f80546001600160a01b038381166001600160a01b0319831681178455604051919092169283917f8be0079c531659141344cd1fd0a4f28419497f9722a3daafe3b4186f6b6457e09190a35050565b80356001600160a01b0381168114610767575f5ffd5b919050565b5f6020828403121561077c575f5ffd5b61078582610751565b9392505050565b5f6020828403121561079c575f5ffd5b5035919050565b5f5f604083850312156107b4575f5ffd5b823591506107c460208401610751565b9050925092905056fea26469706673582212200cf114de00fbe305ed0bcf4da50ba387b7cf9e78bffe147084a2c5066874f3a264736f6c63430008230033","linkReferences":{}},"methodIdentifiers":{"authorizeIssuer(address)":"436693d5","authorizedIssuers(address)":"f731fa0f","getCredential(bytes32)":"d1be4883","owner()":"8da5cb5b","registerCredential(bytes32,address)":"515deca4","renounceOwnership()":"715018a6","revokeCredential(bytes32)":"ca6eec78","revokeIssuer(address)":"00629679","transferOwnership(address)":"f2fde38b","verifyCredential(bytes32)":"4dbf87cc"},"id":17}